{
  "contractName": "Dex",
  "abi": [
    {
      "inputs": [],
      "stateMutability": "nonpayable",
      "type": "constructor"
    },
    {
      "anonymous": false,
      "inputs": [
        {
          "indexed": false,
          "internalType": "uint256",
          "name": "tradeId",
          "type": "uint256"
        },
        {
          "indexed": false,
          "internalType": "uint256",
          "name": "orderId",
          "type": "uint256"
        },
        {
          "indexed": true,
          "internalType": "bytes32",
          "name": "ticker",
          "type": "bytes32"
        },
        {
          "indexed": true,
          "internalType": "address",
          "name": "trader1",
          "type": "address"
        },
        {
          "indexed": true,
          "internalType": "address",
          "name": "trader2",
          "type": "address"
        },
        {
          "indexed": false,
          "internalType": "uint256",
          "name": "amount",
          "type": "uint256"
        },
        {
          "indexed": false,
          "internalType": "uint256",
          "name": "price",
          "type": "uint256"
        },
        {
          "indexed": false,
          "internalType": "uint256",
          "name": "date",
          "type": "uint256"
        }
      ],
      "name": "newTrade",
      "type": "event"
    },
    {
      "inputs": [],
      "name": "admin",
      "outputs": [
        {
          "internalType": "address",
          "name": "",
          "type": "address"
        }
      ],
      "stateMutability": "view",
      "type": "function",
      "constant": true
    },
    {
      "inputs": [],
      "name": "nextOrderId",
      "outputs": [
        {
          "internalType": "uint256",
          "name": "",
          "type": "uint256"
        }
      ],
      "stateMutability": "view",
      "type": "function",
      "constant": true
    },
    {
      "inputs": [],
      "name": "nextTradeId",
      "outputs": [
        {
          "internalType": "uint256",
          "name": "",
          "type": "uint256"
        }
      ],
      "stateMutability": "view",
      "type": "function",
      "constant": true
    },
    {
      "inputs": [
        {
          "internalType": "bytes32",
          "name": "",
          "type": "bytes32"
        },
        {
          "internalType": "uint256",
          "name": "",
          "type": "uint256"
        },
        {
          "internalType": "uint256",
          "name": "",
          "type": "uint256"
        }
      ],
      "name": "orderBook",
      "outputs": [
        {
          "internalType": "uint256",
          "name": "id",
          "type": "uint256"
        },
        {
          "internalType": "address",
          "name": "trader",
          "type": "address"
        },
        {
          "internalType": "enum Dex.Side",
          "name": "side",
          "type": "uint8"
        },
        {
          "internalType": "bytes32",
          "name": "ticker",
          "type": "bytes32"
        },
        {
          "internalType": "uint256",
          "name": "amount",
          "type": "uint256"
        },
        {
          "internalType": "uint256",
          "name": "filled",
          "type": "uint256"
        },
        {
          "internalType": "uint256",
          "name": "price",
          "type": "uint256"
        },
        {
          "internalType": "uint256",
          "name": "date",
          "type": "uint256"
        }
      ],
      "stateMutability": "view",
      "type": "function",
      "constant": true
    },
    {
      "inputs": [
        {
          "internalType": "uint256",
          "name": "",
          "type": "uint256"
        }
      ],
      "name": "tokenList",
      "outputs": [
        {
          "internalType": "bytes32",
          "name": "",
          "type": "bytes32"
        }
      ],
      "stateMutability": "view",
      "type": "function",
      "constant": true
    },
    {
      "inputs": [
        {
          "internalType": "bytes32",
          "name": "",
          "type": "bytes32"
        }
      ],
      "name": "tokens",
      "outputs": [
        {
          "internalType": "bytes32",
          "name": "ticker",
          "type": "bytes32"
        },
        {
          "internalType": "address",
          "name": "tokenAddress",
          "type": "address"
        }
      ],
      "stateMutability": "view",
      "type": "function",
      "constant": true
    },
    {
      "inputs": [
        {
          "internalType": "address",
          "name": "",
          "type": "address"
        },
        {
          "internalType": "bytes32",
          "name": "",
          "type": "bytes32"
        }
      ],
      "name": "traderBalances",
      "outputs": [
        {
          "internalType": "uint256",
          "name": "",
          "type": "uint256"
        }
      ],
      "stateMutability": "view",
      "type": "function",
      "constant": true
    },
    {
      "inputs": [
        {
          "internalType": "address",
          "name": "account",
          "type": "address"
        },
        {
          "internalType": "bytes32",
          "name": "ticker",
          "type": "bytes32"
        }
      ],
      "name": "getTraderBalances",
      "outputs": [
        {
          "internalType": "uint256",
          "name": "",
          "type": "uint256"
        }
      ],
      "stateMutability": "view",
      "type": "function",
      "constant": true
    },
    {
      "inputs": [
        {
          "internalType": "bytes32",
          "name": "ticker",
          "type": "bytes32"
        },
        {
          "internalType": "address",
          "name": "tokenAddress",
          "type": "address"
        }
      ],
      "name": "addToken",
      "outputs": [],
      "stateMutability": "nonpayable",
      "type": "function"
    },
    {
      "inputs": [
        {
          "internalType": "uint256",
          "name": "amount",
          "type": "uint256"
        },
        {
          "internalType": "bytes32",
          "name": "ticker",
          "type": "bytes32"
        }
      ],
      "name": "deposit",
      "outputs": [],
      "stateMutability": "nonpayable",
      "type": "function"
    },
    {
      "inputs": [
        {
          "internalType": "uint256",
          "name": "amount",
          "type": "uint256"
        },
        {
          "internalType": "bytes32",
          "name": "ticker",
          "type": "bytes32"
        }
      ],
      "name": "withdraw",
      "outputs": [],
      "stateMutability": "nonpayable",
      "type": "function"
    },
    {
      "inputs": [
        {
          "internalType": "bytes32",
          "name": "ticker",
          "type": "bytes32"
        },
        {
          "internalType": "uint256",
          "name": "amount",
          "type": "uint256"
        },
        {
          "internalType": "uint256",
          "name": "price",
          "type": "uint256"
        },
        {
          "internalType": "enum Dex.Side",
          "name": "side",
          "type": "uint8"
        }
      ],
      "name": "createLimitOrder",
      "outputs": [],
      "stateMutability": "nonpayable",
      "type": "function"
    },
    {
      "inputs": [
        {
          "internalType": "bytes32",
          "name": "ticker",
          "type": "bytes32"
        },
        {
          "internalType": "uint256",
          "name": "amount",
          "type": "uint256"
        },
        {
          "internalType": "enum Dex.Side",
          "name": "side",
          "type": "uint8"
        }
      ],
      "name": "createMarketOrder",
      "outputs": [],
      "stateMutability": "nonpayable",
      "type": "function"
    },
    {
      "inputs": [
        {
          "internalType": "bytes32",
          "name": "ticker",
          "type": "bytes32"
        },
        {
          "internalType": "enum Dex.Side",
          "name": "side",
          "type": "uint8"
        }
      ],
      "name": "getOrders",
      "outputs": [
        {
          "components": [
            {
              "internalType": "uint256",
              "name": "id",
              "type": "uint256"
            },
            {
              "internalType": "address",
              "name": "trader",
              "type": "address"
            },
            {
              "internalType": "enum Dex.Side",
              "name": "side",
              "type": "uint8"
            },
            {
              "internalType": "bytes32",
              "name": "ticker",
              "type": "bytes32"
            },
            {
              "internalType": "uint256",
              "name": "amount",
              "type": "uint256"
            },
            {
              "internalType": "uint256",
              "name": "filled",
              "type": "uint256"
            },
            {
              "internalType": "uint256",
              "name": "price",
              "type": "uint256"
            },
            {
              "internalType": "uint256",
              "name": "date",
              "type": "uint256"
            }
          ],
          "internalType": "struct Dex.Order[]",
          "name": "",
          "type": "tuple[]"
        }
      ],
      "stateMutability": "view",
      "type": "function",
      "constant": true
    },
    {
      "inputs": [],
      "name": "getTokens",
      "outputs": [
        {
          "components": [
            {
              "internalType": "bytes32",
              "name": "ticker",
              "type": "bytes32"
            },
            {
              "internalType": "address",
              "name": "tokenAddress",
              "type": "address"
            }
          ],
          "internalType": "struct Dex.Token[]",
          "name": "",
          "type": "tuple[]"
        }
      ],
      "stateMutability": "view",
      "type": "function",
      "constant": true
    }
  ],
  "bytecode": "0x608060405234801561000f575f80fd5b503360065f6101000a81548173ffffffffffffffffffffffffffffffffffffffff021916908373ffffffffffffffffffffffffffffffffffffffff160217905550612f128061005d5f395ff3fe608060405234801561000f575f80fd5b50600436106100f3575f3560e01c80639776aacf11610095578063c9630cb011610064578063c9630cb01461029d578063d9c0c950146102b9578063f337fdec146102d5578063f851a44014610305576100f3565b80639776aacf146102175780639ead722214610233578063a8d2021a14610263578063aa6ca8081461027f576100f3565b806372ce957e116100d157806372ce957e1461017c5780637f2c6246146101ac578063813ad083146101c8578063904194a3146101e6576100f3565b80630bb431b6146100f75780632a58b3301461012e57806346e9658b1461014c575b5f80fd5b610111600480360381019061010c919061228f565b610323565b6040516101259897969594939291906123af565b60405180910390f35b6101366103b8565b604051610143919061242b565b60405180910390f35b61016660048036038101906101619190612467565b6103be565b604051610173919061262a565b60405180910390f35b61019660048036038101906101919190612674565b610519565b6040516101a3919061242b565b60405180910390f35b6101c660048036038101906101c191906126b2565b610539565b005b6101d0611225565b6040516101dd919061242b565b60405180910390f35b61020060048036038101906101fb9190612702565b61122b565b60405161020e92919061272d565b60405180910390f35b610231600480360381019061022c9190612754565b611269565b005b61024d60048036038101906102489190612792565b6113ae565b60405161025a91906127bd565b60405180910390f35b61027d600480360381019061027891906127d6565b6113ce565b005b610287611613565b60405161029491906128e9565b60405180910390f35b6102b760048036038101906102b291906127d6565b611760565b005b6102d360048036038101906102ce9190612909565b611918565b005b6102ef60048036038101906102ea9190612674565b612179565b6040516102fc919061242b565b60405180910390f35b61030d6121cf565b60405161031a919061296d565b60405180910390f35b6003602052825f5260405f20602052815f5260405f208181548110610346575f80fd5b905f5260205f2090600702015f925092505050805f015490806001015f9054906101000a900473ffffffffffffffffffffffffffffffffffffffff16908060010160149054906101000a900460ff16908060020154908060030154908060040154908060050154908060060154905088565b60045481565b606060035f8481526020019081526020015f205f8360018111156103e5576103e461232d565b5b81526020019081526020015f20805480602002602001604051908101604052809291908181526020015f905b8282101561050d578382905f5260205f209060070201604051806101000160405290815f8201548152602001600182015f9054906101000a900473ffffffffffffffffffffffffffffffffffffffff1673ffffffffffffffffffffffffffffffffffffffff1673ffffffffffffffffffffffffffffffffffffffff1681526020016001820160149054906101000a900460ff1660018111156104b6576104b561232d565b5b60018111156104c8576104c761232d565b5b81526020016002820154815260200160038201548152602001600482015481526020016005820154815260200160068201548152505081526020019060010190610411565b50505050905092915050565b6002602052815f5260405f20602052805f5260405f205f91509150505481565b825f73ffffffffffffffffffffffffffffffffffffffff165f808381526020019081526020015f206001015f9054906101000a900473ffffffffffffffffffffffffffffffffffffffff1673ffffffffffffffffffffffffffffffffffffffff16036105da576040517f08c379a00000000000000000000000000000000000000000000000000000000081526004016105d1906129e0565b60405180910390fd5b837f4441490000000000000000000000000000000000000000000000000000000000810361063d576040517f08c379a000000000000000000000000000000000000000000000000000000000815260040161063490612a48565b60405180910390fd5b6001808111156106505761064f61232d565b5b8360018111156106635761066261232d565b5b036106f8578360025f3373ffffffffffffffffffffffffffffffffffffffff1673ffffffffffffffffffffffffffffffffffffffff1681526020019081526020015f205f8781526020019081526020015f205410156106f7576040517f08c379a00000000000000000000000000000000000000000000000000000000081526004016106ee90612ab0565b60405180910390fd5b5b5f60035f8781526020019081526020015f205f80600181111561071e5761071d61232d565b5b8660018111156107315761073061232d565b5b1461073c575f61073f565b60015b60018111156107515761075061232d565b5b81526020019081526020015f2090505f808690505b82805490508210801561077857505f81115b15610fc4575f83838154811061079157610790612ace565b5b905f5260205f209060070201600401548484815481106107b4576107b3612ace565b5b905f5260205f209060070201600301546107ce9190612b28565b90505f8183116107de57826107e0565b815b905080836107ee9190612b28565b92508085858154811061080457610803612ace565b5b905f5260205f2090600702016004015f8282546108219190612b5b565b925050819055503373ffffffffffffffffffffffffffffffffffffffff1685858154811061085257610851612ace565b5b905f5260205f2090600702016001015f9054906101000a900473ffffffffffffffffffffffffffffffffffffffff1673ffffffffffffffffffffffffffffffffffffffff168b7ffc9e03b5c8db1d38fcbbef7db5d52adb19b17e683970fa3b5e4320e0c5e924e26005548989815481106108cf576108ce612ace565b5b905f5260205f2090600702015f0154868b8b815481106108f2576108f1612ace565b5b905f5260205f2090600702016005015442604051610914959493929190612b8e565b60405180910390a460018081111561092f5761092e61232d565b5b8860018111156109425761094161232d565b5b03610bec578060025f3373ffffffffffffffffffffffffffffffffffffffff1673ffffffffffffffffffffffffffffffffffffffff1681526020019081526020015f205f8c81526020019081526020015f205f8282546109a29190612b28565b925050819055508484815481106109bc576109bb612ace565b5b905f5260205f20906007020160050154816109d79190612bdf565b60025f3373ffffffffffffffffffffffffffffffffffffffff1673ffffffffffffffffffffffffffffffffffffffff1681526020019081526020015f205f7f444149000000000000000000000000000000000000000000000000000000000081526020019081526020015f205f828254610a519190612b5b565b925050819055508060025f878781548110610a6f57610a6e612ace565b5b905f5260205f2090600702016001015f9054906101000a900473ffffffffffffffffffffffffffffffffffffffff1673ffffffffffffffffffffffffffffffffffffffff1673ffffffffffffffffffffffffffffffffffffffff1681526020019081526020015f205f8c81526020019081526020015f205f828254610af49190612b5b565b92505081905550848481548110610b0e57610b0d612ace565b5b905f5260205f2090600702016005015481610b299190612bdf565b60025f878781548110610b3f57610b3e612ace565b5b905f5260205f2090600702016001015f9054906101000a900473ffffffffffffffffffffffffffffffffffffffff1673ffffffffffffffffffffffffffffffffffffffff1673ffffffffffffffffffffffffffffffffffffffff1681526020019081526020015f205f7f444149000000000000000000000000000000000000000000000000000000000081526020019081526020015f205f828254610be49190612b28565b925050819055505b5f6001811115610bff57610bfe61232d565b5b886001811115610c1257610c1161232d565b5b03610f9857848481548110610c2a57610c29612ace565b5b905f5260205f2090600702016005015481610c459190612bdf565b60025f3373ffffffffffffffffffffffffffffffffffffffff1673ffffffffffffffffffffffffffffffffffffffff1681526020019081526020015f205f7f444149000000000000000000000000000000000000000000000000000000000081526020019081526020015f20541015610cf3576040517f08c379a0000000000000000000000000000000000000000000000000000000008152600401610cea90612c6a565b60405180910390fd5b8060025f3373ffffffffffffffffffffffffffffffffffffffff1673ffffffffffffffffffffffffffffffffffffffff1681526020019081526020015f205f8c81526020019081526020015f205f828254610d4e9190612b5b565b92505081905550848481548110610d6857610d67612ace565b5b905f5260205f2090600702016005015481610d839190612bdf565b60025f3373ffffffffffffffffffffffffffffffffffffffff1673ffffffffffffffffffffffffffffffffffffffff1681526020019081526020015f205f7f444149000000000000000000000000000000000000000000000000000000000081526020019081526020015f205f828254610dfd9190612b28565b925050819055508060025f878781548110610e1b57610e1a612ace565b5b905f5260205f2090600702016001015f9054906101000a900473ffffffffffffffffffffffffffffffffffffffff1673ffffffffffffffffffffffffffffffffffffffff1673ffffffffffffffffffffffffffffffffffffffff1681526020019081526020015f205f8c81526020019081526020015f205f828254610ea09190612b28565b92505081905550848481548110610eba57610eb9612ace565b5b905f5260205f2090600702016005015481610ed59190612bdf565b60025f878781548110610eeb57610eea612ace565b5b905f5260205f2090600702016001015f9054906101000a900473ffffffffffffffffffffffffffffffffffffffff1673ffffffffffffffffffffffffffffffffffffffff1673ffffffffffffffffffffffffffffffffffffffff1681526020019081526020015f205f7f444149000000000000000000000000000000000000000000000000000000000081526020019081526020015f205f828254610f909190612b5b565b925050819055505b60055f815480929190610faa90612c88565b91905055508380610fba90612c88565b9450505050610766565b5f91505b82805490508210801561101e5750828281548110610fe957610fe8612ace565b5b905f5260205f2090600702016003015483838154811061100c5761100b612ace565b5b905f5260205f20906007020160040154145b1561121b575f8290505b600184805490506110399190612b28565b81101561117c578360018261104e9190612b5b565b8154811061105f5761105e612ace565b5b905f5260205f20906007020184828154811061107e5761107d612ace565b5b905f5260205f2090600702015f820154815f0155600182015f9054906101000a900473ffffffffffffffffffffffffffffffffffffffff16816001015f6101000a81548173ffffffffffffffffffffffffffffffffffffffff021916908373ffffffffffffffffffffffffffffffffffffffff1602179055506001820160149054906101000a900460ff168160010160146101000a81548160ff0219169083600181111561112f5761112e61232d565b5b02179055506002820154816002015560038201548160030155600482015481600401556005820154816005015560068201548160060155905050808061117490612c88565b915050611028565b508280548061118e5761118d612ccf565b5b600190038181905f5260205f2090600702015f8082015f9055600182015f6101000a81549073ffffffffffffffffffffffffffffffffffffffff02191690556001820160146101000a81549060ff0219169055600282015f9055600382015f9055600482015f9055600582015f9055600682015f905550509055818061121390612c88565b925050610fc8565b5050505050505050565b60055481565b5f602052805f5260405f205f91509050805f015490806001015f9054906101000a900473ffffffffffffffffffffffffffffffffffffffff16905082565b60065f9054906101000a900473ffffffffffffffffffffffffffffffffffffffff1673ffffffffffffffffffffffffffffffffffffffff163373ffffffffffffffffffffffffffffffffffffffff16146112f8576040517f08c379a00000000000000000000000000000000000000000000000000000000081526004016112ef90612d46565b60405180910390fd5b60405180604001604052808381526020018273ffffffffffffffffffffffffffffffffffffffff168152505f808481526020019081526020015f205f820151815f01556020820151816001015f6101000a81548173ffffffffffffffffffffffffffffffffffffffff021916908373ffffffffffffffffffffffffffffffffffffffff160217905550905050600182908060018154018082558091505060019003905f5260205f20015f90919091909150555050565b600181815481106113bd575f80fd5b905f5260205f20015f915090505481565b805f73ffffffffffffffffffffffffffffffffffffffff165f808381526020019081526020015f206001015f9054906101000a900473ffffffffffffffffffffffffffffffffffffffff1673ffffffffffffffffffffffffffffffffffffffff160361146f576040517f08c379a0000000000000000000000000000000000000000000000000000000008152600401611466906129e0565b60405180910390fd5b8260025f3373ffffffffffffffffffffffffffffffffffffffff1673ffffffffffffffffffffffffffffffffffffffff1681526020019081526020015f205f8481526020019081526020015f205410156114fe576040517f08c379a00000000000000000000000000000000000000000000000000000000081526004016114f590612dae565b60405180910390fd5b8260025f3373ffffffffffffffffffffffffffffffffffffffff1673ffffffffffffffffffffffffffffffffffffffff1681526020019081526020015f205f8481526020019081526020015f205f8282546115599190612b28565b925050819055505f808381526020019081526020015f206001015f9054906101000a900473ffffffffffffffffffffffffffffffffffffffff1673ffffffffffffffffffffffffffffffffffffffff1663a9059cbb33856040518363ffffffff1660e01b81526004016115cd929190612dcc565b6020604051808303815f875af11580156115e9573d5f803e3d5ffd5b505050506040513d601f19601f8201168201806040525081019061160d9190612e28565b50505050565b60605f60018054905067ffffffffffffffff81111561163557611634612e53565b5b60405190808252806020026020018201604052801561166e57816020015b61165b6121f4565b8152602001906001900390816116535790505b5090505f5b6001805490508110156117585760405180604001604052805f80600185815481106116a1576116a0612ace565b5b905f5260205f20015481526020019081526020015f205f015481526020015f80600185815481106116d5576116d4612ace565b5b905f5260205f20015481526020019081526020015f206001015f9054906101000a900473ffffffffffffffffffffffffffffffffffffffff1673ffffffffffffffffffffffffffffffffffffffff1681525082828151811061173a57611739612ace565b5b6020026020010181905250808061175090612c88565b915050611673565b508091505090565b805f73ffffffffffffffffffffffffffffffffffffffff165f808381526020019081526020015f206001015f9054906101000a900473ffffffffffffffffffffffffffffffffffffffff1673ffffffffffffffffffffffffffffffffffffffff1603611801576040517f08c379a00000000000000000000000000000000000000000000000000000000081526004016117f8906129e0565b60405180910390fd5b5f808381526020019081526020015f206001015f9054906101000a900473ffffffffffffffffffffffffffffffffffffffff1673ffffffffffffffffffffffffffffffffffffffff166323b872dd3330866040518463ffffffff1660e01b815260040161187093929190612e80565b6020604051808303815f875af115801561188c573d5f803e3d5ffd5b505050506040513d601f19601f820116820180604052508101906118b09190612e28565b508260025f3373ffffffffffffffffffffffffffffffffffffffff1673ffffffffffffffffffffffffffffffffffffffff1681526020019081526020015f205f8481526020019081526020015f205f82825461190c9190612b5b565b92505081905550505050565b835f73ffffffffffffffffffffffffffffffffffffffff165f808381526020019081526020015f206001015f9054906101000a900473ffffffffffffffffffffffffffffffffffffffff1673ffffffffffffffffffffffffffffffffffffffff16036119b9576040517f08c379a00000000000000000000000000000000000000000000000000000000081526004016119b0906129e0565b60405180910390fd5b847f44414900000000000000000000000000000000000000000000000000000000008103611a1c576040517f08c379a0000000000000000000000000000000000000000000000000000000008152600401611a1390612a48565b60405180910390fd5b600180811115611a2f57611a2e61232d565b5b836001811115611a4257611a4161232d565b5b03611adb578460025f3373ffffffffffffffffffffffffffffffffffffffff1673ffffffffffffffffffffffffffffffffffffffff1681526020019081526020015f205f8881526020019081526020015f20541015611ad6576040517f08c379a0000000000000000000000000000000000000000000000000000000008152600401611acd90612ab0565b60405180910390fd5b611b96565b8385611ae79190612bdf565b60025f3373ffffffffffffffffffffffffffffffffffffffff1673ffffffffffffffffffffffffffffffffffffffff1681526020019081526020015f205f7f444149000000000000000000000000000000000000000000000000000000000081526020019081526020015f20541015611b95576040517f08c379a0000000000000000000000000000000000000000000000000000000008152600401611b8c90612c6a565b60405180910390fd5b5b5f60035f8881526020019081526020015f205f856001811115611bbc57611bbb61232d565b5b81526020019081526020015f2090508060405180610100016040528060045481526020013373ffffffffffffffffffffffffffffffffffffffff168152602001866001811115611c0f57611c0e61232d565b5b81526020018981526020018881526020015f815260200187815260200142815250908060018154018082558091505060019003905f5260205f2090600702015f909190919091505f820151815f01556020820151816001015f6101000a81548173ffffffffffffffffffffffffffffffffffffffff021916908373ffffffffffffffffffffffffffffffffffffffff16021790555060408201518160010160146101000a81548160ff02191690836001811115611ccf57611cce61232d565b5b0217905550606082015181600201556080820151816003015560a0820151816004015560c0820151816005015560e0820151816006015550505f80828054905011611d1a575f611d2c565b60018280549050611d2b9190612b28565b5b90505b5f811115612158575f6001811115611d4a57611d4961232d565b5b856001811115611d5d57611d5c61232d565b5b148015611db95750818181548110611d7857611d77612ace565b5b905f5260205f2090600702016005015482600183611d969190612b28565b81548110611da757611da6612ace565b5b905f5260205f20906007020160050154115b61215857600180811115611dd057611dcf61232d565b5b856001811115611de357611de261232d565b5b148015611e3f5750818181548110611dfe57611dfd612ace565b5b905f5260205f2090600702016005015482600183611e1c9190612b28565b81548110611e2d57611e2c612ace565b5b905f5260205f20906007020160050154105b612158575f82600183611e529190612b28565b81548110611e6357611e62612ace565b5b905f5260205f209060070201604051806101000160405290815f8201548152602001600182015f9054906101000a900473ffffffffffffffffffffffffffffffffffffffff1673ffffffffffffffffffffffffffffffffffffffff1673ffffffffffffffffffffffffffffffffffffffff1681526020016001820160149054906101000a900460ff166001811115611efe57611efd61232d565b5b6001811115611f1057611f0f61232d565b5b8152602001600282015481526020016003820154815260200160048201548152602001600582015481526020016006820154815250509050828281548110611f5b57611f5a612ace565b5b905f5260205f20906007020183600184611f759190612b28565b81548110611f8657611f85612ace565b5b905f5260205f2090600702015f820154815f0155600182015f9054906101000a900473ffffffffffffffffffffffffffffffffffffffff16816001015f6101000a81548173ffffffffffffffffffffffffffffffffffffffff021916908373ffffffffffffffffffffffffffffffffffffffff1602179055506001820160149054906101000a900460ff168160010160146101000a81548160ff021916908360018111156120375761203661232d565b5b021790555060028201548160020155600382015481600301556004820154816004015560058201548160050155600682015481600601559050508083838154811061208557612084612ace565b5b905f5260205f2090600702015f820151815f01556020820151816001015f6101000a81548173ffffffffffffffffffffffffffffffffffffffff021916908373ffffffffffffffffffffffffffffffffffffffff16021790555060408201518160010160146101000a81548160ff0219169083600181111561210a5761210961232d565b5b0217905550606082015181600201556080820151816003015560a0820151816004015560c0820151816005015560e08201518160060155905050818061214f90612eb5565b92505050611d2f565b60045f81548092919061216a90612c88565b91905055505050505050505050565b5f60025f8473ffffffffffffffffffffffffffffffffffffffff1673ffffffffffffffffffffffffffffffffffffffff1681526020019081526020015f205f8381526020019081526020015f2054905092915050565b60065f9054906101000a900473ffffffffffffffffffffffffffffffffffffffff1681565b60405180604001604052805f80191681526020015f73ffffffffffffffffffffffffffffffffffffffff1681525090565b5f80fd5b5f819050919050565b61223b81612229565b8114612245575f80fd5b50565b5f8135905061225681612232565b92915050565b5f819050919050565b61226e8161225c565b8114612278575f80fd5b50565b5f8135905061228981612265565b92915050565b5f805f606084860312156122a6576122a5612225565b5b5f6122b386828701612248565b93505060206122c48682870161227b565b92505060406122d58682870161227b565b9150509250925092565b6122e88161225c565b82525050565b5f73ffffffffffffffffffffffffffffffffffffffff82169050919050565b5f612317826122ee565b9050919050565b6123278161230d565b82525050565b7f4e487b71000000000000000000000000000000000000000000000000000000005f52602160045260245ffd5b6002811061236b5761236a61232d565b5b50565b5f81905061237b8261235a565b919050565b5f61238a8261236e565b9050919050565b61239a81612380565b82525050565b6123a981612229565b82525050565b5f610100820190506123c35f83018b6122df565b6123d0602083018a61231e565b6123dd6040830189612391565b6123ea60608301886123a0565b6123f760808301876122df565b61240460a08301866122df565b61241160c08301856122df565b61241e60e08301846122df565b9998505050505050505050565b5f60208201905061243e5f8301846122df565b92915050565b60028110612450575f80fd5b50565b5f8135905061246181612444565b92915050565b5f806040838503121561247d5761247c612225565b5b5f61248a85828601612248565b925050602061249b85828601612453565b9150509250929050565b5f81519050919050565b5f82825260208201905092915050565b5f819050602082019050919050565b6124d78161225c565b82525050565b6124e68161230d565b82525050565b6124f581612380565b82525050565b61250481612229565b82525050565b61010082015f82015161251f5f8501826124ce565b50602082015161253260208501826124dd565b50604082015161254560408501826124ec565b50606082015161255860608501826124fb565b50608082015161256b60808501826124ce565b5060a082015161257e60a08501826124ce565b5060c082015161259160c08501826124ce565b5060e08201516125a460e08501826124ce565b50505050565b5f6125b5838361250a565b6101008301905092915050565b5f602082019050919050565b5f6125d8826124a5565b6125e281856124af565b93506125ed836124bf565b805f5b8381101561261d57815161260488826125aa565b975061260f836125c2565b9250506001810190506125f0565b5085935050505092915050565b5f6020820190508181035f83015261264281846125ce565b905092915050565b6126538161230d565b811461265d575f80fd5b50565b5f8135905061266e8161264a565b92915050565b5f806040838503121561268a57612689612225565b5b5f61269785828601612660565b92505060206126a885828601612248565b9150509250929050565b5f805f606084860312156126c9576126c8612225565b5b5f6126d686828701612248565b93505060206126e78682870161227b565b92505060406126f886828701612453565b9150509250925092565b5f6020828403121561271757612716612225565b5b5f61272484828501612248565b91505092915050565b5f6040820190506127405f8301856123a0565b61274d602083018461231e565b9392505050565b5f806040838503121561276a57612769612225565b5b5f61277785828601612248565b925050602061278885828601612660565b9150509250929050565b5f602082840312156127a7576127a6612225565b5b5f6127b48482850161227b565b91505092915050565b5f6020820190506127d05f8301846123a0565b92915050565b5f80604083850312156127ec576127eb612225565b5b5f6127f98582860161227b565b925050602061280a85828601612248565b9150509250929050565b5f81519050919050565b5f82825260208201905092915050565b5f819050602082019050919050565b604082015f8201516128515f8501826124fb565b50602082015161286460208501826124dd565b50505050565b5f612875838361283d565b60408301905092915050565b5f602082019050919050565b5f61289782612814565b6128a1818561281e565b93506128ac8361282e565b805f5b838110156128dc5781516128c3888261286a565b97506128ce83612881565b9250506001810190506128af565b5085935050505092915050565b5f6020820190508181035f830152612901818461288d565b905092915050565b5f805f806080858703121561292157612920612225565b5b5f61292e87828801612248565b945050602061293f8782880161227b565b93505060406129508782880161227b565b925050606061296187828801612453565b91505092959194509250565b5f6020820190506129805f83018461231e565b92915050565b5f82825260208201905092915050565b7f7468697320746f6b656e20646f6573206e6f74206578697374000000000000005f82015250565b5f6129ca601983612986565b91506129d582612996565b602082019050919050565b5f6020820190508181035f8301526129f7816129be565b9050919050565b7f63616e6e6f7420747261646520444149000000000000000000000000000000005f82015250565b5f612a32601083612986565b9150612a3d826129fe565b602082019050919050565b5f6020820190508181035f830152612a5f81612a26565b9050919050565b7f746f6b656e2062616c616e636520746f6f206c6f7700000000000000000000005f82015250565b5f612a9a601583612986565b9150612aa582612a66565b602082019050919050565b5f6020820190508181035f830152612ac781612a8e565b9050919050565b7f4e487b71000000000000000000000000000000000000000000000000000000005f52603260045260245ffd5b7f4e487b71000000000000000000000000000000000000000000000000000000005f52601160045260245ffd5b5f612b328261225c565b9150612b3d8361225c565b9250828203905081811115612b5557612b54612afb565b5b92915050565b5f612b658261225c565b9150612b708361225c565b9250828201905080821115612b8857612b87612afb565b5b92915050565b5f60a082019050612ba15f8301886122df565b612bae60208301876122df565b612bbb60408301866122df565b612bc860608301856122df565b612bd560808301846122df565b9695505050505050565b5f612be98261225c565b9150612bf48361225c565b9250828202612c028161225c565b91508282048414831517612c1957612c18612afb565b5b5092915050565b7f6461692062616c616e636520746f6f206c6f77000000000000000000000000005f82015250565b5f612c54601383612986565b9150612c5f82612c20565b602082019050919050565b5f6020820190508181035f830152612c8181612c48565b9050919050565b5f612c928261225c565b91507fffffffffffffffffffffffffffffffffffffffffffffffffffffffffffffffff8203612cc457612cc3612afb565b5b600182019050919050565b7f4e487b71000000000000000000000000000000000000000000000000000000005f52603160045260245ffd5b7f6f6e6c792061646d696e000000000000000000000000000000000000000000005f82015250565b5f612d30600a83612986565b9150612d3b82612cfc565b602082019050919050565b5f6020820190508181035f830152612d5d81612d24565b9050919050565b7f62616c616e636520746f6f206c6f7700000000000000000000000000000000005f82015250565b5f612d98600f83612986565b9150612da382612d64565b602082019050919050565b5f6020820190508181035f830152612dc581612d8c565b9050919050565b5f604082019050612ddf5f83018561231e565b612dec60208301846122df565b9392505050565b5f8115159050919050565b612e0781612df3565b8114612e11575f80fd5b50565b5f81519050612e2281612dfe565b92915050565b5f60208284031215612e3d57612e3c612225565b5b5f612e4a84828501612e14565b91505092915050565b7f4e487b71000000000000000000000000000000000000000000000000000000005f52604160045260245ffd5b5f606082019050612e935f83018661231e565b612ea0602083018561231e565b612ead60408301846122df565b949350505050565b5f612ebf8261225c565b91505f8203612ed157612ed0612afb565b5b60018203905091905056fea2646970667358221220740b5ff2ded0e70e4dc76f93f09d73f2b5fe41059c79e58bf4504296ffe5b03264736f6c63430008140033",
  "immutableReferences": {},
  "source": "// SPDX-License-Identifier: MIT\r\n\r\npragma solidity ^0.8.20;\r\n\r\nimport '@openzeppelin/contracts/token/ERC20/IERC20.sol';\r\n\r\ncontract Dex\r\n{\r\n    enum Side {\r\n        BUY,\r\n        SELL\r\n    }\r\n\r\n    struct Token\r\n    {\r\n        bytes32 ticker;\r\n        address tokenAddress;\r\n    }\r\n\r\n    struct Order {\r\n        uint id;\r\n        address trader;\r\n        Side side;\r\n        bytes32 ticker;\r\n        uint amount;\r\n        uint filled;\r\n        uint price;\r\n        uint date;\r\n    }\r\n\r\n    mapping(bytes32 => Token) public tokens;\r\n    bytes32[] public tokenList;\r\n    mapping(address => mapping(bytes32 => uint256)) public traderBalances;\r\n    mapping(bytes32 => mapping(uint => Order[])) public orderBook; \r\n    uint public nextOrderId;\r\n    uint public nextTradeId;\r\n    address public admin;\r\n    bytes32 constant DAI = bytes32('DAI');\r\n\r\n    event newTrade(\r\n        uint tradeId,\r\n        uint orderId,\r\n        bytes32 indexed ticker,\r\n        address indexed trader1,\r\n        address indexed trader2,\r\n        uint amount,\r\n        uint price,\r\n        uint date\r\n    );\r\n\r\n    constructor ()\r\n    {\r\n        admin = msg.sender;\r\n    }\r\n\r\n    function getTraderBalances(address account, bytes32 ticker) public view returns (uint) \r\n    {\r\n        return traderBalances[account][ticker];\r\n    }\r\n\r\n    function addToken (bytes32 ticker, address tokenAddress) onlyAdmin() external\r\n    {\r\n        tokens[ticker] = Token(ticker, tokenAddress);\r\n        tokenList.push(ticker);\r\n    }\r\n\r\n    function deposit(uint amount, bytes32 ticker) tokenExist(ticker) external\r\n    {\r\n        IERC20(tokens[ticker].tokenAddress).transferFrom(msg.sender, address(this), amount);\r\n        traderBalances[msg.sender][ticker] += amount;\r\n    }\r\n\r\n    function withdraw(uint amount, bytes32 ticker) tokenExist(ticker) external\r\n    {\r\n        require(\r\n            traderBalances[msg.sender][ticker] >= amount,\r\n            'balance too low'  \r\n        );\r\n\r\n        traderBalances[msg.sender][ticker] -= amount;\r\n        IERC20(tokens[ticker].tokenAddress).transfer(msg.sender, amount);\r\n    }\r\n\r\n    function createLimitOrder(bytes32 ticker, uint amount, uint price, Side side) tokenExist(ticker) tokenIsNotDai(ticker) external\r\n    {    \r\n        if (side == Side.SELL) {\r\n            require(\r\n                traderBalances[msg.sender][ticker] >= amount,\r\n                'token balance too low'\r\n            );\r\n        } else {\r\n            require(\r\n                traderBalances[msg.sender][DAI] >= amount * price,\r\n                'dai balance too low'\r\n            );\r\n        }\r\n\r\n        Order[] storage orders = orderBook[ticker][uint(side)];\r\n        orders.push(Order(\r\n            nextOrderId,\r\n            msg.sender,\r\n            side,\r\n            ticker,\r\n            amount,\r\n            0,\r\n            price,\r\n            block.timestamp\r\n        ));\r\n\r\n        uint i = orders.length > 0 ? orders.length - 1 : 0;\r\n\r\n        while(i > 0) {\r\n            if (side == Side.BUY && orders[i - 1].price > orders[i].price) {\r\n                break;\r\n            }\r\n\r\n            if (side == Side.SELL && orders[i - 1].price < orders[i].price) {\r\n                break;\r\n            }\r\n\r\n            Order memory order = orders[i - 1];\r\n            orders[i - 1] = orders[i];\r\n            orders[i] = order;\r\n            i--;\r\n        }\r\n\r\n        nextOrderId++;\r\n    }\r\n\r\n    function createMarketOrder(bytes32 ticker, uint amount, Side side) tokenExist(ticker) tokenIsNotDai(ticker) external\r\n    {\r\n        if (side == Side.SELL) {\r\n            require(\r\n                traderBalances[msg.sender][ticker] >= amount,\r\n                'token balance too low'\r\n            );\r\n        }\r\n\r\n        Order[] storage orders = orderBook[ticker][uint(side == Side.BUY ? Side.SELL : Side.BUY)];\r\n        uint i;\r\n        uint remainingAmount = amount;\r\n\r\n        while(i < orders.length && remainingAmount > 0) {\r\n            uint availableAmount = orders[i].amount - orders[i].filled;\r\n            uint matchedAmount = (remainingAmount > availableAmount) ? availableAmount : remainingAmount;\r\n            remainingAmount -= matchedAmount;\r\n            orders[i].filled += matchedAmount;\r\n\r\n            emit newTrade(\r\n                nextTradeId,\r\n                orders[i].id,\r\n                ticker,\r\n                orders[i].trader,\r\n                msg.sender,\r\n                matchedAmount,\r\n                orders[i].price,\r\n                block.timestamp\r\n            );\r\n\r\n            if (side == Side.SELL) {\r\n                traderBalances[msg.sender][ticker] -= matchedAmount;\r\n                traderBalances[msg.sender][DAI] += matchedAmount * orders[i].price;\r\n                traderBalances[orders[i].trader][ticker] += matchedAmount;\r\n                traderBalances[orders[i].trader][DAI] -= matchedAmount * orders[i].price;\r\n            }\r\n\r\n            if (side == Side.BUY) {\r\n\r\n                require(\r\n                    traderBalances[msg.sender][DAI] >= matchedAmount * orders[i].price,\r\n                    'dai balance too low'\r\n                );\r\n\r\n                traderBalances[msg.sender][ticker] += matchedAmount;\r\n                traderBalances[msg.sender][DAI] -= matchedAmount * orders[i].price;\r\n                traderBalances[orders[i].trader][ticker] -= matchedAmount;\r\n                traderBalances[orders[i].trader][DAI] += matchedAmount * orders[i].price;\r\n            }\r\n            nextTradeId++;\r\n            i++;\r\n        }\r\n\r\n        i = 0;\r\n        while (i < orders.length && orders[i].filled == orders[i].amount) {\r\n            for (uint j = i; j < orders.length - 1; j++) {\r\n                orders[j] = orders[j + 1];\r\n            }\r\n            orders.pop();\r\n            i++;\r\n        }\r\n    }\r\n\r\n    function getOrders(bytes32 ticker, Side side) external view returns(Order[] memory)\r\n    {\r\n        return orderBook[ticker][uint(side)];\r\n    }\r\n\r\n\r\n    function getTokens() external view returns(Token[] memory)\r\n    {\r\n        Token[] memory _tokens = new Token[](tokenList.length);\r\n        for (uint i = 0; i < tokenList.length; i++) {\r\n            _tokens[i] = Token(\r\n                tokens[tokenList[i]].ticker,\r\n                tokens[tokenList[i]].tokenAddress\r\n            );\r\n      }\r\n      return _tokens;\r\n    }\r\n\r\n    modifier tokenIsNotDai(bytes32 ticker)\r\n    {\r\n        require (\r\n            ticker != DAI,\r\n            'cannot trade DAI'\r\n        );\r\n        _;\r\n    }\r\n\r\n    modifier tokenExist(bytes32 ticker)\r\n    {\r\n        require(\r\n            tokens[ticker].tokenAddress != address(0),\r\n            'this token does not exist'\r\n        );\r\n        _;\r\n    }\r\n\r\n    modifier onlyAdmin()\r\n    {\r\n        require(msg.sender == admin, 'only admin');\r\n        _;\r\n    }\r\n}",
  "sourcePath": "C:\\Code\\exchange.inverbunny\\contracts\\Dex.sol",
  "compiler": {
    "name": "solc",
    "version": "0.8.20+commit.a1b79de6.Emscripten.clang"
  },
  "schemaVersion": "3.4.16",
  "updatedAt": "2024-04-25T18:34:36.508Z",
  "networkType": "ethereum",
  "devdoc": {
    "kind": "dev",
    "methods": {},
    "version": 1
  },
  "userdoc": {
    "kind": "user",
    "methods": {},
    "version": 1
  }
}